:020000040000FA
:10000000600B0020B1010000B5010000B701000045
:10001000B9010000BB010000BD01000000000000AC
:10002000000000000000000000000000BF01000010
:10003000C101000000000000C3010000C501000074
:10004000C7010000450B0000000000004708000049
:10005000C7010000C7010000C90A0000C701000075
:1000600000000000C7010000C7010000C701000038
:10007000C701000000000000C7010000C701000028
:10008000C7010000D90A0000C7010000830B00006F
:10009000C7010000A1080000C7010000C70100005F
:1000A000C701000000000000C7010000C7010000F8
:1000B000000000000000000000000000C701000078
:1000C00000F002F800F064F80AA090E8000C824406
:1000D0008344AAF10107DA4501D100F059F8AFF2E3
:1000E000090EBAE80F0013F0010F18BFFB1A43F016
:1000F00001031847BC1A0000DC1A00000A444FF044
:10010000000C10F8013B13F0070408BF10F8014B76
:100110001D1108BF10F8015B641E05D010F8016BBB
:10012000641E01F8016BF9D113F0080F1EBF10F81F
:10013000014BAD1C0C1B09D16D1E58BF01F801CB42
:10014000FAD505E014F8016B01F8016B6D1EF9D5C5
:100150009142D6D3704700000023002400250026DA
:10016000103A28BF78C1FBD8520728BF30C148BF1A
:100170000B607047782901F01B83632901F07F84AD
:10018000002070471FB501F0F7FC1FBD10B510BD72
:1001900001F0B0FC1146FFF7F5FF01F077FA01F02E
:1001A000CEFC03B4FFF7F2FF03BC01F0D7FC000064
:1001B00008480047FEE7FEE7FEE7FEE7FEE7FEE74A
:1001C000FEE7FEE7FEE7FEE703480449024A044B68
:1001D00070470000C100000060030020600B002099
:1001E00060030020F84910F4001F05D0F74A526858
:1001F00022F00042F54B5A6010F4801F05D0F34AFC
:10020000526822F00052F14B5A6010F4004F05D0B2
:10021000EE4A526822F04002EC4B5A6010F4807FA4
:1002200005D0EA4A526822F02002E84B5A6010F0EA
:10023000010F05D0E54A526822F00402E34B5A60F0
:1002400010F4804F05D0E14A526822F01002DF4BD3
:100250005A6010F4007F05D0DC4A526822F0030295
:10026000DA4B5A60D94A1268C3430B431A40D74B42
:100270001A607047D44910F4001F05D0D34A526861
:1002800042F00042D14B5A6010F4801F05D0CF4A93
:10029000526842F00052CD4B5A6010F4004F05D026
:1002A000CA4A526842F04002C84B5A6010F4807F3C
:1002B00005D0C64A526842F02002C44B5A6010F082
:1002C000010F05D0C14A526842F00402BF4B5A6088
:1002D00010F4804F05D0BD4A526842F01002BB4B6B
:1002E0005A6010F4007F05D0B84A526842F0030209
:1002F000B64B5A60B54A126820EA01031A43B34B61
:100300001A607047F0B500240025002600220C2852
:100310001FD80C27B7FBF0FC00FB1C7707B1F0BD22
:10032000AA4F7F68DFF8A8C207EA0C0747F08047AA
:10033000DFF898C2CCF804700C27B7FBF0F14F1E21
:1003400047F4887747F4405747F08467CCF8087043
:1003500084E050282AD00CDC32281BD004DC1E2874
:1003600010D0302836D111E03C2817D0462831D1A2
:1003700018E05A281ED0642820D06E2822D0782871
:1003800028D123E028240225032624E04024022546
:10039000032620E03224032502261CE03C2403250A
:1003A000022618E046240325022614E050240325E3
:1003B000022610E05A24032502260CE032240325ED
:1003C000012608E037240325012604E03C24032508
:1003D000012600E0A3E700BF4FF480173F6827F431
:1003E000F85747F400674FF4801CCCF80070774F43
:1003F0007F68DFF8DCC107EA0C07DFF8D0C1CCF872
:100400000470B70447EA8537274347F0C057CCF854
:100410000C706746FF6827F00047CCF80C70674601
:10042000FF6847F48007CCF80C7000BF674FFF6887
:1004300017F0804FFAD0674FDFF890C1CCF8087002
:1004400067467F68DFF888C107EA0C07DFF888C1D4
:1004500047EA0C07DFF874C1CCF804705B4F7F6883
:10046000DFF878C107EA0C07A0F1010C47EA4C3726
:10047000DFF858C1CCF80470594F4743DFF864C126
:10048000CCF80070514FBF6807F00F07791C674622
:100490003F684F43DFF850C1CCF800704B4FBF6846
:1004A000C7F30317791C4F4F3F68B7FBF1F7DFF82D
:1004B0003CC1CCF800704B4F3F68DFF824C1B7FB5C
:1004C000FCF334275F434FF47A7CB7FBFCF7FAB2B6
:1004D0004FF480173F6827F4F85747EA02274FF494
:1004E000801CCCF8007000BF19E72DE9F041002511
:1004F0000026002700230C2825D84FF00C0CBCFB4D
:10050000F0F800FB18CCBCF1000F01D0BDE8F08181
:10051000DFF8B8C0DCF804C0DFF8B4800CEA080CDF
:10052000DFF8A880C8F804C04FF0300CBCFBF0F234
:10053000A2F1010C4CF4887C4CF4405C4CF0846CCF
:10054000C8F808C0A3E050282AD00CDC32281BD001
:1005500004DC1E2810D030284AD111E03C2817D0E6
:10056000462845D118E05A281ED0642820D06E288D
:1005700022D078283CD123E028250226032738E022
:1005800040250226032734E032250326022730E0E7
:100590003C25032602272CE046250326022728E0D7
:1005A00050250326022724E05A250326022720E0AF
:1005B0003225032601271CE037250326012718E0F2
:1005C0003C250326012714E0018130000000064885
:1005D000FFE6FFBF1031200400010040FF1F00E0D4
:1005E00040420F004000002044000020480000204E
:1005F0008CE700BF4FF4801CDCF800C02CF4F85CE2
:100600004CF4006C4FF48018C8F800C0DFF8C0C18B
:10061000DCF804C0DFF8BC810CEA080CDFF8B0811C
:10062000C8F804C04FEA874C4CEA863C4CEA050CFB
:100630004CF0C05CC8F80CC0C446DCF80CC04CF0F0
:10064000004CC8F80CC0C446DCF80CC04CF4800C5C
:10065000C8F80CC000BFDFF878C1DCF80CC01CF093
:10066000804FF8D0DFF870C1DFF86481C8F808C0A7
:10067000C446DCF804C0DFF85C810CEA080CDFF843
:100680005C814CEA080CDFF84881C8F804C0DFF848
:1006900040C1DCF804C0DFF848810CEA080CA0F186
:1006A00001084CEA483CDFF82881C8F804C04FF440
:1006B000002CDCF82C1240F6F63C61450ED240F6D8
:1006C000BE2C61450AD94FF47A7C01FB0CFC0CFB73
:1006D00000FC4FF00308BCFBF8F103E0DFF804C1B5
:1006E00000FB0CF1DFF800C1CCF80010DFF8E0C02F
:1006F000DCF808C00CF00F0C0CF10102DFF8E8C0C8
:10070000DCF800C00CFB02FCDFF8E080C8F800C099
:10071000DFF8BCC0DCF808C0CCF3031C0CF101020C
:10072000DFF8C4C0DCF800C0BCFBF2FCDFF8C0801E
:10073000C8F800C0DFF8B0C0DCF800C0DFF8A48063
:10074000BCFBF8F44FF0340C04FB0CFC4FF47A784B
:10075000BCFBF8FC0CF0FF034FF4801CDCF800C07D
:100760002CF4F85C4CEA032C4FF48018C8F800C055
:1007700000BFCBE610B504462046FFF7C3FD10BD11
:1007800003201C490860704700201A490860704720
:1007900010B519480E4908610846406940F001004B
:1007A00048610A2000F047FF002009490861084617
:1007B000406920F0010048614FF0FF30FFF712FD63
:1007C0006E20FFF7D7FFFFF7DBFF10BD704700007B
:1007D00000000648FFE6FFBF103120040001004082
:1007E000FF1F00E040420F004000002044000020B6
:1007F0004800002000D008407462966C4F2803D156
:100800000121A54A11701DE04B2807D1A2490978A2
:1008100001F00D01891CA04A117013E00D2807D1C9
:100820009D49097801F00B01091D9B4A117009E0EF
:100830000A2807D19849097801F0070141F0080119
:10084000954A117070479549C86B10F0100F15D07C
:100850000DE092490968924A924B1B78D154914914
:100860000978491C8F4A117001218F4A11708B49F8
:10087000896901F010011029EBD110E010F0200F70
:1008800009D08649896901F08001802907D10121B9
:10089000864A117003E040F6FF71804A5164704748
:1008A00010B58348C46B14F0100F21D019E08048B4
:1008B00000687B497B4A127888547A4A1278885CAF
:1008C000FFF79CFF7648774A1278815C79A000F0A8
:1008D00039FF74480078401C724908700120724941
:1008E00008707348806900F010001028DFD110E014
:1008F00014F0200F09D06E48806900F08000802835
:1009000007D101206949087003E040F6FF7068498B
:10091000486410BD2DE9F04103461001B1FBF0F52C
:10092000B1FBF0F700FB1716F701B7FBF0F7781CE7
:10093000440805EB941703EB430CDFF8608108EBE8
:100940008C4CCCF8247004F03F0703EB430C08EB0D
:100950008C4CCCF82870BDE8F08170B504460E468A
:100960007CB9554805685548C06A20F00F00401D05
:100970005249C862032000F085F8032000F076F8A1
:1009800016E04E488068C0F30360401C4C4909687B
:10099000B1FBF0F54948406B20F4701040F4A01012
:1009A00046494863152000F06DF8152000F05EF808
:1009B00000203E4908703C49087004EB4400374968
:1009C00001EB8040006B20F0010004EB4401334A4E
:1009D00002EB81410863324629462046FFF79AFF21
:1009E000602004EB44012D4A02EB8141C86240F2D1
:1009F000013004EB440102EB81410863102004EB59
:100A0000440102EB8141886340F6FF7004EB44012E
:100A100002EB8141486470BD00EB40021F4B03EBC9
:100A20008242116000BF00EB40021C4B03EB82428C
:100A3000926912F0080FF6D17047F0B507460C46E0
:100A40001546002606E014F8011B3846FFF7E4FFC0
:100A5000701CC6B2AE42F6D3F0BD30B504460D46AA
:100A6000E1B20020FFF7D8FF204630BD00F01F02A2
:100A70000121914042094FF0E02303EB8202C2F8CA
:100A80000011704700F01F02012191400D4A4309F7
:100A900042F82310704700004F000020000001487A
:100AA000900100204E0000204D0000204C0000204E
:100AB00000000D48256300004800002000000648A3
:100AC0004400002080E200E01949086B0121194A26
:100AD00011701749886270471749086B0121174A3E
:100AE000117015498862704710B5062000F016F89D
:100AF000062000F007F8112000F010F8112000F097
:100B000001F810BD00F01F020121914042094FF091
:100B1000E02303EB8202C2F80011704700F01F02CD
:100B200001219140064A430942F823107047000012
:100B300000000A485800002000000B48590000201F
:100B400080E200E010B5002418E0FE48142101FB0B
:100B50000400C06880B10120FB490855FF20F94915
:100B6000142202FB04110861F84850F8240018B15F
:100B7000F64951F824008047601CC4B2042CE4DB21
:100B800010BD00200BE0EF49C96E012282401142E6
:100B900003D001218140EB4AD166411CC8B2042830
:100BA000F1DBE849C96D11F0010F09D00121E54AD7
:100BB000D1651146096EE64A11600121E54A1170BE
:100BC000E049C96D11F0020F09D00221DD4AD1655B
:100BD0001146496EDE4A91600121DE4A91707047EC
:100BE00010B5012000F0D6F9012000F0C7F910BDC2
:100BF000F0B5D94D2C68D54D45F820201425D14E9F
:100C000005FB0066B560CF4D2D6D00EB4007072654
:100C1000BE40B54300EB40070026BE403543C94EF9
:100C20003565CE4DB4FBF5F34B435D1E142707FB32
:100C300000663560F0BDF0B5C74D2C68C34D45F872
:100C400020201425BF4E05FB0066B560BD4D2D6DFF
:100C500000EB40070726BE40B54300EB40070326E4
:100C6000BE403543B74E35654FF4FA55B4FBF5F346
:100C70004B435D1E142707FB00663560B14D1426FB
:100C800006FB0055AD6845F00105AE4E07FB00665A
:100C9000B56000BFAB4D142606FB0055ED68002D76
:100CA000F8D0FF25A74E142707FB00663561F0BD7D
:100CB000A449142202FB0011896841F00101A14AF4
:100CC000142303FB0022916070479E49142202FB0B
:100CD0000011896821F001019A4A142303FB0022C4
:100CE0009160FF21974A03FB00221161704770B5A4
:100CF00004460D46132000F04DF9132000F03EF994
:100D000044B99748806B20F00C0040F008009449EB
:100D1000886308E0022C06D19148806B20F0030024
:100D2000801C8F4988638748006D04EB44020721CB
:100D30009140884304EB44020321914008438149D8
:100D400008651C20142202FB041188607D48406D58
:100D50000121A14088437B4948654FF0FF3008607E
:100D60003CB90846806D20F0070040EA85008865A0
:100D700009E0022C07D17348806D20F0380040EA6A
:100D800045107049886570BD30B96E49896D41F074
:100D900001016C4A916507E0022805D16949896D16
:100DA00041F00801674A9165704730B96549896D1E
:100DB00021F00101634A916507E0022805D16149EC
:100DC000896D21F008015F4A9165704770B504464E
:100DD0000D461646132000F0DDF8132000F0CEF883
:100DE00044B95F48806B20F00C0040F008005C497B
:100DF00088631CE0012C08D15948806B20F4400026
:100E000040F400005649886311E0022C07D1544891
:100E1000806B20F00300801C5149886307E0504834
:100E2000C06A20F4402040F400204D49C862454883
:100E3000006D04EB440207219140884304EB440217
:100E40000321914008433F4908651C20142202FBFE
:100E5000041188603B48406D0121A1400843394995
:100E600048650846142101FB04000560354804214B
:100E700001FB040006673348806E6100491C0122B3
:100E80008A4010402F49886670BD2E49896E430004
:100E900001229A4011432B4A916670472949896E75
:100EA000430001229A409143264A916670472C489C
:100EB000006820F000602A4908600846806B20F036
:100EC000040088630846406C40F400304864704772
:100ED00010B51C4B9B6803F0FE031A4CA3601E4B1D
:100EE0001A681E23A36023461B6D23F007032365A6
:100EF0001A4BB2FBF3F141434B1E236023469B6820
:100F000043F00103A36000BF0E4BDB68002BFBD056
:100F1000FF230C4C236110BD10B50F4B1A681E2324
:100F2000084CA36023461B6D23F00703DB1C2365DD
:100F30004FF4FA53B2FBF3F141434B1E23602346B7
:100F40009B680FE0000003485E000020B001002015
:100F5000C00100205A0000204800002040420F003D
:100F60000000064843F00103A36000BF0E4BDB689E
:100F7000002BFBD0FF230C4C236110BD00F01F029F
:100F80000121914042094FF0E02303EB8202C2F8B5
:100F90000011704700F01F0201219140034A4309EC
:100FA00042F82310704700000000034880E200E090
:100FB00010B5F748006B20F07070F54908630846DB
:100FC000406B20F0300048630846006C40F0C05091
:100FD00008640846406C40F004004864ED488069AD
:100FE00020F0C050EB498861EB48806920F0080090
:100FF000E9498861E748006840F0C050E549086069
:10100000E548006840F00800E3490860E048406BAC
:1010100020F47070DE4948630846406C40F01800C8
:1010200048640846006820F480000860DA48806957
:1010300020F01800D84988610846006840F0080090
:1010400008600846006840F01000086008468068A4
:1010500040F0100088600846806840F00800886012
:10106000052000F051FB10BD012811D1C949896844
:1010700041F00061C74A91601146896841F0805192
:101080009160C549896841F00401C34A916010E04C
:10109000C049C96841F00061BE4AD1601146C968C3
:1010A00041F08051D160BC49C96841F00401BA4A9D
:1010B000D160704710B5052000F026FBB6480068E7
:1010C00040F01000B44908600846806840F0100005
:1010D0008860052000F018FBAF48806840F00800E9
:1010E000AD498860052000F00FFBAB48C06840F0B8
:1010F0001000A949C860052000F006FB10BD10B51E
:10110000A548006840F01000A34908600846C06880
:1011100040F00800C860052000F0F6FA9E48C0685C
:1011200040F010009C49C860052000F0EDFA9A4894
:10113000806840F0080098498860052000F0E4FAD3
:101140009548806840F0100093498860052000F0C1
:10115000DBFA10BD10B59048006820F010008E49F1
:101160000860012000F0D0FA8B48806840F0080049
:1011700089498860022000F0C7FA03E0FFF7BFFF4B
:10118000012010BD8448406910F010008249486178
:10119000F4D1032000F0B8FA7F48C06840F008009E
:1011A0007D49C860022000F0AFFA0020E9E710B5E1
:1011B0007948C06840F008007749C8600846006870
:1011C00040F0100008600846C06840F01000C86099
:1011D000022000F099FA7048806840F008006E49DB
:1011E0008860052000F090FA6B48C06840F0080065
:1011F0006949C860052000F087FA10BD10B566483F
:10120000C06840F008006449C8600846006840F0C3
:10121000100008600846806840F0100088600220D6
:1012200000F072FA5C48806840F008005A49886013
:10123000052000F069FA5848C06840F00800564997
:10124000C860052000F060FA10BD70B50446254660
:101250005148006840F010004F4908600846C068D7
:1012600040F00800C860032000F04EFA072627E08F
:1012700005F08000802806D14748806840F01000C3
:101280004549886005E04448C06840F01000424984
:10129000C8606D00022000F037FA3F48806840F0D7
:1012A00008003D498860052000F02EFA3A48C068E1
:1012B00040F008003849C860022000F025FA761E88
:1012C000002ED5DAFFF746FF08B1002070BD0120DF
:1012D000FCE770B505460E46FFF7ECFE002405E07E
:1012E000285DFFF7B2FF00B970BD641CB442F7DBA4
:1012F000FFF705FF002404E0295D28A000F022FA92
:10130000641CB442F8DD27A000F01CFA00BFEBE734
:1013100070B5044600262048006820F010001E49E1
:101320000860052000F0F0F900251EE01A48C068AA
:1013300040F008001849C860052000F0E5F916489B
:10134000806840F0080014498860052000F0DCF94E
:101350006006040E1048406900F010000E49486114
:1013600006460EB1601CC4B26D1C082DDED3FFF71B
:101370001EFF204670BD70B505460E460024FFF7DF
:1013800099FE5120FFF761FF70B9002070BD000089
:101390000000064800000A4800000B48252E32785D
:1013A000200000000D0A000004E0285DFFF7B0FFF8
:1013B0002855641CB442F8DBFFF720FFFFF79FFEBF
:1013C000002405E0295DAFF22C0000F0BBF9641C9D
:1013D000B442F7DBAFF2340000F0B4F92878D5E777
:1013E0002DE9F04106460F4614461D46DDF81880EB
:1013F0004FF49671204600F090FA39463046FFF7D8
:1014000068FF404600F068F929462046FFF7B3FF21
:10141000BDE8F08108B5FFF7CBFD0120FFF724FE02
:101420001E2000F059F94FF496716F4800F075FADC
:101430006E4801686C48FFF79EFF322000906B48B1
:10144000694A072143686A48FFF7CAFF32200090C3
:101450006648654A0721836865480A30FFF7C0FF80
:10146000322000906148604A0721C3686048143008
:10147000FFF7B6FF322000905C485B4A0721036902
:101480005B481E30FFF7ACFF322000905748564AA9
:101490000721436956482830FFF7A2FF3220009009
:1014A0005248514A0721836951483230FFF798FF6B
:1014B000322000904D484C4A0A21C3694C483C30C8
:1014C000FFF78EFF322000904848474A0A21036AFE
:1014D00047484630FFF784FF322000904348424A95
:1014E0000A21436A42485030FFF77AFF32200090C9
:1014F0003E483D4A0A21836A3D485A30FFF770FF53
:10150000962000903948384A0A21C36A3848643026
:10151000FFF766FF962000903448334A0A21C36AD9
:1015200033486E30FFF75CFF962000902F482E4A1C
:101530000A21436B2E487830FFF752FF9620009027
:101540002A48294A0A21836B29488230FFF748FF3D
:10155000962000902548244A0A21C36B24488C30E9
:10156000FFF73EFF9620009020481F4A0A21036C97
:101570001F489630FFF734FF962000901B481A4A08
:101580000A21436C1A48A030FFF72AFF96200090EA
:101590001648154A0A21836C1548AA30FFF720FF28
:1015A000962000901148104A0A21C36C1048B430AC
:1015B000FFF716FF962000900C480B4A0A21036D96
:1015C0000B48BE30FFF70CFF962000900748064AF4
:1015D0000A21436D0648C830FFF702FFFFF78FFD71
:1015E0000020FFF741FD08BDD00100203801002098
:1015F0006400002070B505460E46002404E0295D15
:101600001DA000F09FF8641CB442F8D31CA000F0A9
:1016100099F870BD70B505460E46002405E055F8F2
:10162000241018A000F08EF8641CB442F7D314A064
:1016300000F088F870BD00BF0100A0F10100FBD1EF
:10164000704701460A78CB780B70CA704A788B785D
:101650004B708A70704730B502460B461046D5185D
:10166000691E05E004780D7800F8015B01F8014976
:101670008142F7D830BD0000252E327820000000CE
:101680000A000000252E387820000000FFF780F8BF
:101690004FF4E1310020FFF760F94FF4E131012010
:1016A000FFF75BF900F004F8FFF7B4FE00BFFEE7B8
:1016B0002248006820F000602049086020488068C7
:1016C00020F001001E4988601E2088600846006DD9
:1016D00020F00700086570471949896821F0010169
:1016E000174A91604DF2D8614143116011468968F3
:1016F00041F00101916000BF1149C9680029FBD088
:10170000FF210F4A116170470D49896821F00101DD
:101710000B4A916000EBC001C1EB801111601146D2
:10172000896841F00101916000BF0549C96800293D
:10173000FBD0FF21024A11617047000000000648FB
:10174000000003480FB4044910B503AA029800F042
:10175000A3F910BC5DF814FB5000002070B50546DD
:101760000C46012A05D02868800600D5EA690023C6
:1017700002E0012305E05B1C934202D2E05C0028FA
:10178000F9D1A869E618C01AA861286A1844286225
:101790002846AFF3008004E0D5E9012114F8010BDD
:1017A0009047B442F8D32846AFF3008070BD0000E4
:1017B00070B504460D4621461068AFF300802168DD
:1017C000090502D5104A7A4402E00F4A7A440E32E3
:1017D000002104F1240307E000F00F064FEA101087
:1017E000965D5E5401F101010028F5D103462068A1
:1017F000000704D5702D02D009B111320223204612
:10180000BDE8704000F0D5B8BC0300002DE9F047FA
:101810004FF0000A04468946C0F820A02046E1683F
:101820008847002876D0252806D0D4E901219047A2
:10183000206A401C2062F1E7E168204600258847C5
:10184000C4F81CA006460027C4F818A02A2E09D008
:10185000304600F08AF938B304EB8708303EC8F808
:10186000186019E059F8041B204604EB87029161C7
:10187000E1688847012F064618D1E069002820DA80
:1018800025F020051DE0D8F8180000EB800006EBDD
:1018900040003038C8F818002046E16888470646FE
:1018A00000F063F90028EED1012F0AD02E2E08D1C6
:1018B0002046E16888477F1C0646022F45F0200538
:1018C000C4DBA069002803DA404245F00105A061AD
:1018D000E80701D025F01005B6B1A6F1410019289E
:1018E00002D8203645F400654A4631462046256038
:1018F0004D46FEF73FFC58B1012806D0ED1D25F0FE
:10190000070000F1080989E704E005F1040985E70B
:1019100030468AE7206ABDE8F0874FF000020429CC
:10192000C0F0128010F0030C00F01B80CCF1040C0E
:10193000BCF1020F18BF00F8012BA8BF20F8022B42
:10194000A1EB0C0100F00DB85FEAC17C24BF00F8E8
:10195000012B00F8012B48BF00F8012B70474FF016
:10196000000200B5134694469646203922BFA0E8EF
:101970000C50A0E80C50B1F12001BFF4F7AF0907FB
:1019800028BFA0E80C5048BF0CC05DF804EB8900EC
:1019900028BF40F8042B08BF704748BF20F8022B2F
:1019A00011F0804F18BF00F8012B70477047704747
:1019B00070472DE9F0470D4604469246994600F1DE
:1019C00024080168880604D5E06921F0100121602F
:1019D00000E00120A84202DDA0EB050700E000279F
:1019E000A16907EB050202EB0900A1EB0000A06171
:1019F0002068C00602D42046AFF30080002608E02D
:101A0000D4E901211AF806009047206A401C761C90
:101A100020624E45F4DB2068C0060AD52046AFF3AD
:101A2000008006E0D4E9012130209047206A401C64
:101A30002062381EA7F10107F4DC07E0D4E9012198
:101A400018F805009047206A401C2062281EA5F166
:101A50000105F3DC2046AFF300802068000602D5C4
:101A60000220BDE8F0870120FBE710B5436913B100
:101A7000AFF3008001E0FFF771FE012010BD126896
:101A800000F124010A7000224A700122EDE711687A
:101A90004FF0FF32E9E70000074B70B50C467B447E
:101AA00000F011F80546204600F020F810B14FF084
:101AB000FF3070BD284670BDB9EFFFFF01694A1CB9
:101AC00002610878704700B58FB0CDE9013100217F
:101AD000059105497944CDE9031011466846FFF7A1
:101AE00095FE0FB000BD0000E5FFFFFFC06800F0ED
:101AF00080007047754600F029F8AE46050069463B
:101B0000534620F00700854618B020B5FEF75CFB71
:101B1000BDE820404FF000064FF000074FF00008EE
:101B20004FF0000B21F00701AC46ACE8C009ACE86F
:101B3000C009ACE8C009ACE8C0098D46704704464E
:101B4000AFF300802046FEF72CFB000000487047F2
:101B5000FC020020004870470003002001491820C3
:101B6000ABBEFEE726000200704730380A2801D2DB
:101B7000012070470020704710B5FFF7EBFF4FF0D2
:101B80000001016010BD3031323334353637383919
:101B900041424344454640305800303132333435B9
:101BA000363738396162636465664030780000001A
:101BB000D01B00004000002050010000FC0000008D
:101BC000581C000090010020D009000058010000BE
:101BD000012412508ACA0A7A020A7A030A7A040A8B
:101BE0007A050A5A060A44A4CF011B3C710A393C03
:101BF0001B21BD0A393C1B2AF90A393C1B1A250A4C
:101C0000393C1B11610A393C2B0CAD0A293D2B10C4
:101C1000160A293D2B35DB0A293D2B29600A293D6F
:101C20002B7E410A293D2B62FA0A293D2B47370AB0
:101C300032072B5B8C0A32081BE9750A2913112322
:101C400007E932192A0A0C3129322A24725908323A
:081C5000441A04790932040072
:04000005000000C136
:00000001FF
